{
  "abi": [
    {
      "inputs": [
        {
          "internalType": "string",
          "name": "_name",
          "type": "string"
        },
        {
          "internalType": "string",
          "name": "_symbol",
          "type": "string"
        },
        {
          "internalType": "string",
          "name": "_baseUri",
          "type": "string"
        },
        {
          "internalType": "address[]",
          "name": "_minters",
          "type": "address[]"
        }
      ],
      "stateMutability": "nonpayable",
      "type": "constructor"
    },
    {
      "anonymous": false,
      "inputs": [
        {
          "indexed": true,
          "internalType": "address",
          "name": "owner",
          "type": "address"
        },
        {
          "indexed": true,
          "internalType": "address",
          "name": "approved",
          "type": "address"
        },
        {
          "indexed": true,
          "internalType": "uint256",
          "name": "tokenId",
          "type": "uint256"
        }
      ],
      "name": "Approval",
      "type": "event"
    },
    {
      "anonymous": false,
      "inputs": [
        {
          "indexed": true,
          "internalType": "address",
          "name": "owner",
          "type": "address"
        },
        {
          "indexed": true,
          "internalType": "address",
          "name": "operator",
          "type": "address"
        },
        {
          "indexed": false,
          "internalType": "bool",
          "name": "approved",
          "type": "bool"
        }
      ],
      "name": "ApprovalForAll",
      "type": "event"
    },
    {
      "anonymous": false,
      "inputs": [
        {
          "indexed": false,
          "internalType": "address",
          "name": "account",
          "type": "address"
        }
      ],
      "name": "Paused",
      "type": "event"
    },
    {
      "anonymous": false,
      "inputs": [
        {
          "indexed": true,
          "internalType": "bytes32",
          "name": "role",
          "type": "bytes32"
        },
        {
          "indexed": true,
          "internalType": "bytes32",
          "name": "previousAdminRole",
          "type": "bytes32"
        },
        {
          "indexed": true,
          "internalType": "bytes32",
          "name": "newAdminRole",
          "type": "bytes32"
        }
      ],
      "name": "RoleAdminChanged",
      "type": "event"
    },
    {
      "anonymous": false,
      "inputs": [
        {
          "indexed": true,
          "internalType": "bytes32",
          "name": "role",
          "type": "bytes32"
        },
        {
          "indexed": true,
          "internalType": "address",
          "name": "account",
          "type": "address"
        },
        {
          "indexed": true,
          "internalType": "address",
          "name": "sender",
          "type": "address"
        }
      ],
      "name": "RoleGranted",
      "type": "event"
    },
    {
      "anonymous": false,
      "inputs": [
        {
          "indexed": true,
          "internalType": "bytes32",
          "name": "role",
          "type": "bytes32"
        },
        {
          "indexed": true,
          "internalType": "address",
          "name": "account",
          "type": "address"
        },
        {
          "indexed": true,
          "internalType": "address",
          "name": "sender",
          "type": "address"
        }
      ],
      "name": "RoleRevoked",
      "type": "event"
    },
    {
      "anonymous": false,
      "inputs": [
        {
          "indexed": true,
          "internalType": "address",
          "name": "from",
          "type": "address"
        },
        {
          "indexed": true,
          "internalType": "address",
          "name": "to",
          "type": "address"
        },
        {
          "indexed": true,
          "internalType": "uint256",
          "name": "tokenId",
          "type": "uint256"
        }
      ],
      "name": "Transfer",
      "type": "event"
    },
    {
      "anonymous": false,
      "inputs": [
        {
          "indexed": false,
          "internalType": "address",
          "name": "account",
          "type": "address"
        }
      ],
      "name": "Unpaused",
      "type": "event"
    },
    {
      "inputs": [],
      "name": "DEFAULT_ADMIN_ROLE",
      "outputs": [
        {
          "internalType": "bytes32",
          "name": "",
          "type": "bytes32"
        }
      ],
      "stateMutability": "view",
      "type": "function"
    },
    {
      "inputs": [],
      "name": "MINTER_ROLE",
      "outputs": [
        {
          "internalType": "bytes32",
          "name": "",
          "type": "bytes32"
        }
      ],
      "stateMutability": "view",
      "type": "function"
    },
    {
      "inputs": [],
      "name": "PAUSER_ROLE",
      "outputs": [
        {
          "internalType": "bytes32",
          "name": "",
          "type": "bytes32"
        }
      ],
      "stateMutability": "view",
      "type": "function"
    },
    {
      "inputs": [
        {
          "internalType": "address",
          "name": "to",
          "type": "address"
        },
        {
          "internalType": "uint256",
          "name": "tokenId",
          "type": "uint256"
        }
      ],
      "name": "approve",
      "outputs": [],
      "stateMutability": "nonpayable",
      "type": "function"
    },
    {
      "inputs": [
        {
          "internalType": "address",
          "name": "owner",
          "type": "address"
        }
      ],
      "name": "balanceOf",
      "outputs": [
        {
          "internalType": "uint256",
          "name": "",
          "type": "uint256"
        }
      ],
      "stateMutability": "view",
      "type": "function"
    },
    {
      "inputs": [
        {
          "internalType": "uint256",
          "name": "tokenId",
          "type": "uint256"
        }
      ],
      "name": "getApproved",
      "outputs": [
        {
          "internalType": "address",
          "name": "",
          "type": "address"
        }
      ],
      "stateMutability": "view",
      "type": "function"
    },
    {
      "inputs": [
        {
          "internalType": "bytes32",
          "name": "role",
          "type": "bytes32"
        }
      ],
      "name": "getRoleAdmin",
      "outputs": [
        {
          "internalType": "bytes32",
          "name": "",
          "type": "bytes32"
        }
      ],
      "stateMutability": "view",
      "type": "function"
    },
    {
      "inputs": [
        {
          "internalType": "bytes32",
          "name": "role",
          "type": "bytes32"
        },
        {
          "internalType": "address",
          "name": "account",
          "type": "address"
        }
      ],
      "name": "grantRole",
      "outputs": [],
      "stateMutability": "nonpayable",
      "type": "function"
    },
    {
      "inputs": [
        {
          "internalType": "bytes32",
          "name": "role",
          "type": "bytes32"
        },
        {
          "internalType": "address",
          "name": "account",
          "type": "address"
        }
      ],
      "name": "hasRole",
      "outputs": [
        {
          "internalType": "bool",
          "name": "",
          "type": "bool"
        }
      ],
      "stateMutability": "view",
      "type": "function"
    },
    {
      "inputs": [
        {
          "internalType": "address",
          "name": "owner",
          "type": "address"
        },
        {
          "internalType": "address",
          "name": "operator",
          "type": "address"
        }
      ],
      "name": "isApprovedForAll",
      "outputs": [
        {
          "internalType": "bool",
          "name": "",
          "type": "bool"
        }
      ],
      "stateMutability": "view",
      "type": "function"
    },
    {
      "inputs": [],
      "name": "name",
      "outputs": [
        {
          "internalType": "string",
          "name": "",
          "type": "string"
        }
      ],
      "stateMutability": "view",
      "type": "function"
    },
    {
      "inputs": [
        {
          "internalType": "uint256",
          "name": "tokenId",
          "type": "uint256"
        }
      ],
      "name": "ownerOf",
      "outputs": [
        {
          "internalType": "address",
          "name": "",
          "type": "address"
        }
      ],
      "stateMutability": "view",
      "type": "function"
    },
    {
      "inputs": [],
      "name": "pause",
      "outputs": [],
      "stateMutability": "nonpayable",
      "type": "function"
    },
    {
      "inputs": [],
      "name": "paused",
      "outputs": [
        {
          "internalType": "bool",
          "name": "",
          "type": "bool"
        }
      ],
      "stateMutability": "view",
      "type": "function"
    },
    {
      "inputs": [
        {
          "internalType": "bytes32",
          "name": "role",
          "type": "bytes32"
        },
        {
          "internalType": "address",
          "name": "account",
          "type": "address"
        }
      ],
      "name": "renounceRole",
      "outputs": [],
      "stateMutability": "nonpayable",
      "type": "function"
    },
    {
      "inputs": [
        {
          "internalType": "bytes32",
          "name": "role",
          "type": "bytes32"
        },
        {
          "internalType": "address",
          "name": "account",
          "type": "address"
        }
      ],
      "name": "revokeRole",
      "outputs": [],
      "stateMutability": "nonpayable",
      "type": "function"
    },
    {
      "inputs": [
        {
          "internalType": "address",
          "name": "to",
          "type": "address"
        }
      ],
      "name": "safeMint",
      "outputs": [],
      "stateMutability": "nonpayable",
      "type": "function"
    },
    {
      "inputs": [
        {
          "internalType": "address",
          "name": "from",
          "type": "address"
        },
        {
          "internalType": "address",
          "name": "to",
          "type": "address"
        },
        {
          "internalType": "uint256",
          "name": "tokenId",
          "type": "uint256"
        }
      ],
      "name": "safeTransferFrom",
      "outputs": [],
      "stateMutability": "nonpayable",
      "type": "function"
    },
    {
      "inputs": [
        {
          "internalType": "address",
          "name": "from",
          "type": "address"
        },
        {
          "internalType": "address",
          "name": "to",
          "type": "address"
        },
        {
          "internalType": "uint256",
          "name": "tokenId",
          "type": "uint256"
        },
        {
          "internalType": "bytes",
          "name": "data",
          "type": "bytes"
        }
      ],
      "name": "safeTransferFrom",
      "outputs": [],
      "stateMutability": "nonpayable",
      "type": "function"
    },
    {
      "inputs": [
        {
          "internalType": "address",
          "name": "operator",
          "type": "address"
        },
        {
          "internalType": "bool",
          "name": "approved",
          "type": "bool"
        }
      ],
      "name": "setApprovalForAll",
      "outputs": [],
      "stateMutability": "nonpayable",
      "type": "function"
    },
    {
      "inputs": [
        {
          "internalType": "bytes4",
          "name": "interfaceId",
          "type": "bytes4"
        }
      ],
      "name": "supportsInterface",
      "outputs": [
        {
          "internalType": "bool",
          "name": "",
          "type": "bool"
        }
      ],
      "stateMutability": "view",
      "type": "function"
    },
    {
      "inputs": [],
      "name": "symbol",
      "outputs": [
        {
          "internalType": "string",
          "name": "",
          "type": "string"
        }
      ],
      "stateMutability": "view",
      "type": "function"
    },
    {
      "inputs": [
        {
          "internalType": "uint256",
          "name": "tokenId",
          "type": "uint256"
        }
      ],
      "name": "tokenURI",
      "outputs": [
        {
          "internalType": "string",
          "name": "",
          "type": "string"
        }
      ],
      "stateMutability": "view",
      "type": "function"
    },
    {
      "inputs": [
        {
          "internalType": "address",
          "name": "from",
          "type": "address"
        },
        {
          "internalType": "address",
          "name": "to",
          "type": "address"
        },
        {
          "internalType": "uint256",
          "name": "tokenId",
          "type": "uint256"
        }
      ],
      "name": "transferFrom",
      "outputs": [],
      "stateMutability": "nonpayable",
      "type": "function"
    },
    {
      "inputs": [],
      "name": "unpause",
      "outputs": [],
      "stateMutability": "nonpayable",
      "type": "function"
    }
  ],
  "bytecode": {
    "object": "0x60806040523480156200001157600080fd5b50604051620022663803806200226683398101604081905262000034916200036d565b8351849084906200004d906000906020850190620001e9565b50805162000063906001906020840190620001e9565b50506006805460ff19169055506200007d60003362000144565b620000a97f65d7a28e3265b37a6474929f336521b332c1681b933f6cb9f3376673440d862a3362000144565b620000c4600080516020620022468339815191523362000144565b60005b815181101562000123576200010e60008051602062002246833981519152838381518110620000fa57620000fa620004a9565b60200260200101516200014460201b60201c565b806200011a81620004bf565b915050620000c7565b50815162000139906008906020850190620001e9565b505050505062000523565b60008281526007602090815260408083206001600160a01b038516845290915290205460ff16620001e55760008281526007602090815260408083206001600160a01b03851684529091529020805460ff19166001179055620001a43390565b6001600160a01b0316816001600160a01b0316837f2f8788117e7eff1d82e926ec794901d17c78024a50270940304540a733656f0d60405160405180910390a45b5050565b828054620001f790620004e7565b90600052602060002090601f0160209004810192826200021b576000855562000266565b82601f106200023657805160ff191683800117855562000266565b8280016001018555821562000266579182015b828111156200026657825182559160200191906001019062000249565b506200027492915062000278565b5090565b5b8082111562000274576000815560010162000279565b634e487b7160e01b600052604160045260246000fd5b604051601f8201601f191681016001600160401b0381118282101715620002d057620002d06200028f565b604052919050565b600082601f830112620002ea57600080fd5b81516001600160401b038111156200030657620003066200028f565b60206200031c601f8301601f19168201620002a5565b82815285828487010111156200033157600080fd5b60005b838110156200035157858101830151828201840152820162000334565b83811115620003635760008385840101525b5095945050505050565b600080600080608085870312156200038457600080fd5b84516001600160401b03808211156200039c57600080fd5b620003aa88838901620002d8565b9550602091508187015181811115620003c257600080fd5b620003d089828a01620002d8565b955050604087015181811115620003e657600080fd5b620003f489828a01620002d8565b9450506060870151818111156200040a57600080fd5b8701601f810189136200041c57600080fd5b8051828111156200043157620004316200028f565b8060051b925062000444848401620002a5565b818152928201840192848101908b8511156200045f57600080fd5b928501925b848410156200049957835192506001600160a01b0383168314620004885760008081fd5b828252928501929085019062000464565b989b979a50959850505050505050565b634e487b7160e01b600052603260045260246000fd5b600060018201620004e057634e487b7160e01b600052601160045260246000fd5b5060010190565b600181811c90821680620004fc57607f821691505b6020821081036200051d57634e487b7160e01b600052602260045260246000fd5b50919050565b611d1380620005336000396000f3fe608060405234801561001057600080fd5b50600436106101735760003560e01c80636352211e116100de578063a22cb46511610097578063d539139311610071578063d539139314610322578063d547741f14610349578063e63ab1e91461035c578063e985e9c51461038357600080fd5b8063a22cb465146102e9578063b88d4fde146102fc578063c87b56dd1461030f57600080fd5b80636352211e1461029857806370a08231146102ab5780638456cb59146102be57806391d14854146102c657806395d89b41146102d9578063a217fddf146102e157600080fd5b80632f2ff15d116101305780632f2ff15d1461023957806336568abe1461024c5780633f4ba83a1461025f57806340d097c31461026757806342842e0e1461027a5780635c975abb1461028d57600080fd5b806301ffc9a71461017857806306fdde03146101a0578063081812fc146101b5578063095ea7b3146101e057806323b872dd146101f5578063248a9ca314610208575b600080fd5b61018b610186366004611758565b6103bf565b60405190151581526020015b60405180910390f35b6101a86103d0565b60405161019791906117cd565b6101c86101c33660046117e0565b610462565b6040516001600160a01b039091168152602001610197565b6101f36101ee366004611815565b6104fc565b005b6101f361020336600461183f565b610611565b61022b6102163660046117e0565b60009081526007602052604090206001015490565b604051908152602001610197565b6101f361024736600461187b565b610642565b6101f361025a36600461187b565b610667565b6101f36106e5565b6101f36102753660046118a7565b61071a565b6101f361028836600461183f565b6107f9565b60065460ff1661018b565b6101c86102a63660046117e0565b610814565b61022b6102b93660046118a7565b61088b565b6101f3610911565b61018b6102d436600461187b565b610943565b6101a861096e565b61022b600081565b6101f36102f73660046118c2565b61097d565b6101f361030a366004611914565b610988565b6101a861031d3660046117e0565b6109c0565b61022b7f9f2df0fed2c77648de5860a4cc508cd0818c85b8b8a1ab4ceeef8d981c8956a681565b6101f361035736600461187b565b610a9b565b61022b7f65d7a28e3265b37a6474929f336521b332c1681b933f6cb9f3376673440d862a81565b61018b6103913660046119f0565b6001600160a01b03918216600090815260056020908152604080832093909416825291909152205460ff1690565b60006103ca82610ac0565b92915050565b6060600080546103df90611a1a565b80601f016020809104026020016040519081016040528092919081815260200182805461040b90611a1a565b80156104585780601f1061042d57610100808354040283529160200191610458565b820191906000526020600020905b81548152906001019060200180831161043b57829003601f168201915b5050505050905090565b6000818152600260205260408120546001600160a01b03166104e05760405162461bcd60e51b815260206004820152602c60248201527f4552433732313a20617070726f76656420717565727920666f72206e6f6e657860448201526b34b9ba32b73a103a37b5b2b760a11b60648201526084015b60405180910390fd5b506000908152600460205260409020546001600160a01b031690565b600061050782610814565b9050806001600160a01b0316836001600160a01b0316036105745760405162461bcd60e51b815260206004820152602160248201527f4552433732313a20617070726f76616c20746f2063757272656e74206f776e656044820152603960f91b60648201526084016104d7565b336001600160a01b038216148061059057506105908133610391565b6106025760405162461bcd60e51b815260206004820152603860248201527f4552433732313a20617070726f76652063616c6c6572206973206e6f74206f7760448201527f6e6572206e6f7220617070726f76656420666f7220616c6c000000000000000060648201526084016104d7565b61060c8383610ae5565b505050565b61061b3382610b53565b6106375760405162461bcd60e51b81526004016104d790611a54565b61060c838383610c4a565b60008281526007602052604090206001015461065d81610df1565b61060c8383610dfb565b6001600160a01b03811633146106d75760405162461bcd60e51b815260206004820152602f60248201527f416363657373436f6e74726f6c3a2063616e206f6e6c792072656e6f756e636560448201526e103937b632b9903337b91039b2b63360891b60648201526084016104d7565b6106e18282610e81565b5050565b7f65d7a28e3265b37a6474929f336521b332c1681b933f6cb9f3376673440d862a61070f81610df1565b610717610ee8565b50565b7f9f2df0fed2c77648de5860a4cc508cd0818c85b8b8a1ab4ceeef8d981c8956a661074481610df1565b60065460ff161561078a5760405162461bcd60e51b815260206004820152601060248201526f14185d5cd8589b194e881c185d5cd95960821b60448201526064016104d7565b6107938261088b565b156107d45760405162461bcd60e51b815260206004820152601160248201527043616e6e6f74206d696e7420747769636560781b60448201526064016104d7565b60006107df60095490565b90506107ef600980546001019055565b61060c8382610f7b565b61060c83838360405180602001604052806000815250610988565b6000818152600260205260408120546001600160a01b0316806103ca5760405162461bcd60e51b815260206004820152602960248201527f4552433732313a206f776e657220717565727920666f72206e6f6e657869737460448201526832b73a103a37b5b2b760b91b60648201526084016104d7565b60006001600160a01b0382166108f55760405162461bcd60e51b815260206004820152602960248201527f4552433732313a2061646472657373207a65726f206973206e6f7420612076616044820152683634b21037bbb732b960b91b60648201526084016104d7565b506001600160a01b031660009081526003602052604090205490565b7f65d7a28e3265b37a6474929f336521b332c1681b933f6cb9f3376673440d862a61093b81610df1565b610717610f95565b60009182526007602090815260408084206001600160a01b0393909316845291905290205460ff1690565b6060600180546103df90611a1a565b6106e1338383611010565b6109923383610b53565b6109ae5760405162461bcd60e51b81526004016104d790611a54565b6109ba848484846110de565b50505050565b6000818152600260205260409020546060906001600160a01b0316610a3f5760405162461bcd60e51b815260206004820152602f60248201527f4552433732314d657461646174613a2055524920717565727920666f72206e6f60448201526e3732bc34b9ba32b73a103a37b5b2b760891b60648201526084016104d7565b6000610a49611111565b90506000815111610a695760405180602001604052806000815250610a94565b80610a7384611120565b604051602001610a84929190611aa5565b6040516020818303038152906040525b9392505050565b600082815260076020526040902060010154610ab681610df1565b61060c8383610e81565b60006001600160e01b03198216637965db0b60e01b14806103ca57506103ca82611221565b600081815260046020526040902080546001600160a01b0319166001600160a01b0384169081179091558190610b1a82610814565b6001600160a01b03167f8c5be1e5ebec7d5bd14f71427d1e84f3dd0314c0f7b2291e5b200ac8c7c3b92560405160405180910390a45050565b6000818152600260205260408120546001600160a01b0316610bcc5760405162461bcd60e51b815260206004820152602c60248201527f4552433732313a206f70657261746f7220717565727920666f72206e6f6e657860448201526b34b9ba32b73a103a37b5b2b760a11b60648201526084016104d7565b6000610bd783610814565b9050806001600160a01b0316846001600160a01b03161480610c1e57506001600160a01b0380821660009081526005602090815260408083209388168352929052205460ff165b80610c425750836001600160a01b0316610c3784610462565b6001600160a01b0316145b949350505050565b826001600160a01b0316610c5d82610814565b6001600160a01b031614610cc15760405162461bcd60e51b815260206004820152602560248201527f4552433732313a207472616e736665722066726f6d20696e636f72726563742060448201526437bbb732b960d91b60648201526084016104d7565b6001600160a01b038216610d235760405162461bcd60e51b8152602060048201526024808201527f4552433732313a207472616e7366657220746f20746865207a65726f206164646044820152637265737360e01b60648201526084016104d7565b610d2e838383611271565b610d39600082610ae5565b6001600160a01b0383166000908152600360205260408120805460019290610d62908490611aea565b90915550506001600160a01b0382166000908152600360205260408120805460019290610d90908490611b01565b909155505060008181526002602052604080822080546001600160a01b0319166001600160a01b0386811691821790925591518493918716917fddf252ad1be2c89b69c2b068fc378daa952ba7f163c4a11628f55a4df523b3ef91a4505050565b61071781336112c0565b610e058282610943565b6106e15760008281526007602090815260408083206001600160a01b03851684529091529020805460ff19166001179055610e3d3390565b6001600160a01b0316816001600160a01b0316837f2f8788117e7eff1d82e926ec794901d17c78024a50270940304540a733656f0d60405160405180910390a45050565b610e8b8282610943565b156106e15760008281526007602090815260408083206001600160a01b0385168085529252808320805460ff1916905551339285917ff6391f5c32d9c69d2a47ea670b442974b53935d1edc7fd64eb21e047a839171b9190a45050565b60065460ff16610f315760405162461bcd60e51b815260206004820152601460248201527314185d5cd8589b194e881b9bdd081c185d5cd95960621b60448201526064016104d7565b6006805460ff191690557f5db9ee0a495bf2e6ff9c91a7834c1ba4fdd244a5e8aa4e537bd38aeae4b073aa335b6040516001600160a01b03909116815260200160405180910390a1565b6106e1828260405180602001604052806000815250611324565b60065460ff1615610fdb5760405162461bcd60e51b815260206004820152601060248201526f14185d5cd8589b194e881c185d5cd95960821b60448201526064016104d7565b6006805460ff191660011790557f62e78cea01bee320cd4e420270b5ea74000d11b0c9f74754ebdbfc544b05a258610f5e3390565b816001600160a01b0316836001600160a01b0316036110715760405162461bcd60e51b815260206004820152601960248201527f4552433732313a20617070726f766520746f2063616c6c65720000000000000060448201526064016104d7565b6001600160a01b03838116600081815260056020908152604080832094871680845294825291829020805460ff191686151590811790915591519182527f17307eab39ab6107e8899845ad3d59bd9653f200f220920489ca2b5937696c31910160405180910390a3505050565b6110e9848484610c4a565b6110f584848484611357565b6109ba5760405162461bcd60e51b81526004016104d790611b19565b6060600880546103df90611a1a565b6060816000036111475750506040805180820190915260018152600360fc1b602082015290565b8160005b8115611171578061115b81611b6b565b915061116a9050600a83611b9a565b915061114b565b60008167ffffffffffffffff81111561118c5761118c6118fe565b6040519080825280601f01601f1916602001820160405280156111b6576020820181803683370190505b5090505b8415610c42576111cb600183611aea565b91506111d8600a86611bae565b6111e3906030611b01565b60f81b8183815181106111f8576111f8611bc2565b60200101906001600160f81b031916908160001a90535061121a600a86611b9a565b94506111ba565b60006001600160e01b031982166380ac58cd60e01b148061125257506001600160e01b03198216635b5e139f60e01b145b806103ca57506301ffc9a760e01b6001600160e01b03198316146103ca565b6001600160a01b0383161561060c5760405162461bcd60e51b815260206004820152601560248201527421b0b73737ba103a3930b739b332b9103a37b5b2b760591b60448201526064016104d7565b6112ca8282610943565b6106e1576112e2816001600160a01b03166014611458565b6112ed836020611458565b6040516020016112fe929190611bd8565b60408051601f198184030181529082905262461bcd60e51b82526104d7916004016117cd565b61132e83836115f4565b61133b6000848484611357565b61060c5760405162461bcd60e51b81526004016104d790611b19565b60006001600160a01b0384163b1561144d57604051630a85bd0160e11b81526001600160a01b0385169063150b7a029061139b903390899088908890600401611c4d565b6020604051808303816000875af19250505080156113d6575060408051601f3d908101601f191682019092526113d391810190611c8a565b60015b611433573d808015611404576040519150601f19603f3d011682016040523d82523d6000602084013e611409565b606091505b50805160000361142b5760405162461bcd60e51b81526004016104d790611b19565b805181602001fd5b6001600160e01b031916630a85bd0160e11b149050610c42565b506001949350505050565b60606000611467836002611ca7565b611472906002611b01565b67ffffffffffffffff81111561148a5761148a6118fe565b6040519080825280601f01601f1916602001820160405280156114b4576020820181803683370190505b509050600360fc1b816000815181106114cf576114cf611bc2565b60200101906001600160f81b031916908160001a905350600f60fb1b816001815181106114fe576114fe611bc2565b60200101906001600160f81b031916908160001a9053506000611522846002611ca7565b61152d906001611b01565b90505b60018111156115a5576f181899199a1a9b1b9c1cb0b131b232b360811b85600f166010811061156157611561611bc2565b1a60f81b82828151811061157757611577611bc2565b60200101906001600160f81b031916908160001a90535060049490941c9361159e81611cc6565b9050611530565b508315610a945760405162461bcd60e51b815260206004820181905260248201527f537472696e67733a20686578206c656e67746820696e73756666696369656e7460448201526064016104d7565b6001600160a01b03821661164a5760405162461bcd60e51b815260206004820181905260248201527f4552433732313a206d696e7420746f20746865207a65726f206164647265737360448201526064016104d7565b6000818152600260205260409020546001600160a01b0316156116af5760405162461bcd60e51b815260206004820152601c60248201527f4552433732313a20746f6b656e20616c7265616479206d696e7465640000000060448201526064016104d7565b6116bb60008383611271565b6001600160a01b03821660009081526003602052604081208054600192906116e4908490611b01565b909155505060008181526002602052604080822080546001600160a01b0319166001600160a01b03861690811790915590518392907fddf252ad1be2c89b69c2b068fc378daa952ba7f163c4a11628f55a4df523b3ef908290a45050565b6001600160e01b03198116811461071757600080fd5b60006020828403121561176a57600080fd5b8135610a9481611742565b60005b83811015611790578181015183820152602001611778565b838111156109ba5750506000910152565b600081518084526117b9816020860160208601611775565b601f01601f19169290920160200192915050565b602081526000610a9460208301846117a1565b6000602082840312156117f257600080fd5b5035919050565b80356001600160a01b038116811461181057600080fd5b919050565b6000806040838503121561182857600080fd5b611831836117f9565b946020939093013593505050565b60008060006060848603121561185457600080fd5b61185d846117f9565b925061186b602085016117f9565b9150604084013590509250925092565b6000806040838503121561188e57600080fd5b8235915061189e602084016117f9565b90509250929050565b6000602082840312156118b957600080fd5b610a94826117f9565b600080604083850312156118d557600080fd5b6118de836117f9565b9150602083013580151581146118f357600080fd5b809150509250929050565b634e487b7160e01b600052604160045260246000fd5b6000806000806080858703121561192a57600080fd5b611933856117f9565b9350611941602086016117f9565b925060408501359150606085013567ffffffffffffffff8082111561196557600080fd5b818701915087601f83011261197957600080fd5b81358181111561198b5761198b6118fe565b604051601f8201601f19908116603f011681019083821181831017156119b3576119b36118fe565b816040528281528a60208487010111156119cc57600080fd5b82602086016020830137600060208483010152809550505050505092959194509250565b60008060408385031215611a0357600080fd5b611a0c836117f9565b915061189e602084016117f9565b600181811c90821680611a2e57607f821691505b602082108103611a4e57634e487b7160e01b600052602260045260246000fd5b50919050565b60208082526031908201527f4552433732313a207472616e736665722063616c6c6572206973206e6f74206f6040820152701ddb995c881b9bdc88185c1c1c9bdd9959607a1b606082015260800190565b60008351611ab7818460208801611775565b835190830190611acb818360208801611775565b01949350505050565b634e487b7160e01b600052601160045260246000fd5b600082821015611afc57611afc611ad4565b500390565b60008219821115611b1457611b14611ad4565b500190565b60208082526032908201527f4552433732313a207472616e7366657220746f206e6f6e20455243373231526560408201527131b2b4bb32b91034b6b83632b6b2b73a32b960711b606082015260800190565b600060018201611b7d57611b7d611ad4565b5060010190565b634e487b7160e01b600052601260045260246000fd5b600082611ba957611ba9611b84565b500490565b600082611bbd57611bbd611b84565b500690565b634e487b7160e01b600052603260045260246000fd5b7f416363657373436f6e74726f6c3a206163636f756e7420000000000000000000815260008351611c10816017850160208801611775565b7001034b99036b4b9b9b4b733903937b6329607d1b6017918401918201528351611c41816028840160208801611775565b01602801949350505050565b6001600160a01b0385811682528416602082015260408101839052608060608201819052600090611c80908301846117a1565b9695505050505050565b600060208284031215611c9c57600080fd5b8151610a9481611742565b6000816000190483118215151615611cc157611cc1611ad4565b500290565b600081611cd557611cd5611ad4565b50600019019056fea26469706673582212201fbf64574e268cf4a7c6ce7c616627c2c0830ab87a09f4d74d50efde9930805964736f6c634300080d00339f2df0fed2c77648de5860a4cc508cd0818c85b8b8a1ab4ceeef8d981c8956a6",
    "linkReferences": {}
  }
}