{
  "abi": [
    {
      "inputs": [
        {
          "internalType": "string",
          "name": "_name",
          "type": "string"
        },
        {
          "internalType": "string",
          "name": "_symbol",
          "type": "string"
        },
        {
          "internalType": "string",
          "name": "_baseUri",
          "type": "string"
        },
        {
          "internalType": "address[]",
          "name": "_minters",
          "type": "address[]"
        }
      ],
      "stateMutability": "nonpayable",
      "type": "constructor"
    },
    {
      "anonymous": false,
      "inputs": [
        {
          "indexed": true,
          "internalType": "address",
          "name": "owner",
          "type": "address"
        },
        {
          "indexed": true,
          "internalType": "address",
          "name": "approved",
          "type": "address"
        },
        {
          "indexed": true,
          "internalType": "uint256",
          "name": "tokenId",
          "type": "uint256"
        }
      ],
      "name": "Approval",
      "type": "event"
    },
    {
      "anonymous": false,
      "inputs": [
        {
          "indexed": true,
          "internalType": "address",
          "name": "owner",
          "type": "address"
        },
        {
          "indexed": true,
          "internalType": "address",
          "name": "operator",
          "type": "address"
        },
        {
          "indexed": false,
          "internalType": "bool",
          "name": "approved",
          "type": "bool"
        }
      ],
      "name": "ApprovalForAll",
      "type": "event"
    },
    {
      "anonymous": false,
      "inputs": [
        {
          "indexed": false,
          "internalType": "address",
          "name": "account",
          "type": "address"
        }
      ],
      "name": "Paused",
      "type": "event"
    },
    {
      "anonymous": false,
      "inputs": [
        {
          "indexed": true,
          "internalType": "bytes32",
          "name": "role",
          "type": "bytes32"
        },
        {
          "indexed": true,
          "internalType": "bytes32",
          "name": "previousAdminRole",
          "type": "bytes32"
        },
        {
          "indexed": true,
          "internalType": "bytes32",
          "name": "newAdminRole",
          "type": "bytes32"
        }
      ],
      "name": "RoleAdminChanged",
      "type": "event"
    },
    {
      "anonymous": false,
      "inputs": [
        {
          "indexed": true,
          "internalType": "bytes32",
          "name": "role",
          "type": "bytes32"
        },
        {
          "indexed": true,
          "internalType": "address",
          "name": "account",
          "type": "address"
        },
        {
          "indexed": true,
          "internalType": "address",
          "name": "sender",
          "type": "address"
        }
      ],
      "name": "RoleGranted",
      "type": "event"
    },
    {
      "anonymous": false,
      "inputs": [
        {
          "indexed": true,
          "internalType": "bytes32",
          "name": "role",
          "type": "bytes32"
        },
        {
          "indexed": true,
          "internalType": "address",
          "name": "account",
          "type": "address"
        },
        {
          "indexed": true,
          "internalType": "address",
          "name": "sender",
          "type": "address"
        }
      ],
      "name": "RoleRevoked",
      "type": "event"
    },
    {
      "anonymous": false,
      "inputs": [
        {
          "indexed": true,
          "internalType": "address",
          "name": "from",
          "type": "address"
        },
        {
          "indexed": true,
          "internalType": "address",
          "name": "to",
          "type": "address"
        },
        {
          "indexed": true,
          "internalType": "uint256",
          "name": "tokenId",
          "type": "uint256"
        }
      ],
      "name": "Transfer",
      "type": "event"
    },
    {
      "anonymous": false,
      "inputs": [
        {
          "indexed": false,
          "internalType": "address",
          "name": "account",
          "type": "address"
        }
      ],
      "name": "Unpaused",
      "type": "event"
    },
    {
      "inputs": [],
      "name": "DEFAULT_ADMIN_ROLE",
      "outputs": [
        {
          "internalType": "bytes32",
          "name": "",
          "type": "bytes32"
        }
      ],
      "stateMutability": "view",
      "type": "function"
    },
    {
      "inputs": [],
      "name": "MINTER_ROLE",
      "outputs": [
        {
          "internalType": "bytes32",
          "name": "",
          "type": "bytes32"
        }
      ],
      "stateMutability": "view",
      "type": "function"
    },
    {
      "inputs": [],
      "name": "PAUSER_ROLE",
      "outputs": [
        {
          "internalType": "bytes32",
          "name": "",
          "type": "bytes32"
        }
      ],
      "stateMutability": "view",
      "type": "function"
    },
    {
      "inputs": [
        {
          "internalType": "address",
          "name": "to",
          "type": "address"
        },
        {
          "internalType": "uint256",
          "name": "tokenId",
          "type": "uint256"
        }
      ],
      "name": "approve",
      "outputs": [],
      "stateMutability": "nonpayable",
      "type": "function"
    },
    {
      "inputs": [
        {
          "internalType": "address",
          "name": "owner",
          "type": "address"
        }
      ],
      "name": "balanceOf",
      "outputs": [
        {
          "internalType": "uint256",
          "name": "",
          "type": "uint256"
        }
      ],
      "stateMutability": "view",
      "type": "function"
    },
    {
      "inputs": [
        {
          "internalType": "uint256",
          "name": "tokenId",
          "type": "uint256"
        }
      ],
      "name": "getApproved",
      "outputs": [
        {
          "internalType": "address",
          "name": "",
          "type": "address"
        }
      ],
      "stateMutability": "view",
      "type": "function"
    },
    {
      "inputs": [
        {
          "internalType": "bytes32",
          "name": "role",
          "type": "bytes32"
        }
      ],
      "name": "getRoleAdmin",
      "outputs": [
        {
          "internalType": "bytes32",
          "name": "",
          "type": "bytes32"
        }
      ],
      "stateMutability": "view",
      "type": "function"
    },
    {
      "inputs": [
        {
          "internalType": "bytes32",
          "name": "role",
          "type": "bytes32"
        },
        {
          "internalType": "address",
          "name": "account",
          "type": "address"
        }
      ],
      "name": "grantRole",
      "outputs": [],
      "stateMutability": "nonpayable",
      "type": "function"
    },
    {
      "inputs": [
        {
          "internalType": "bytes32",
          "name": "role",
          "type": "bytes32"
        },
        {
          "internalType": "address",
          "name": "account",
          "type": "address"
        }
      ],
      "name": "hasRole",
      "outputs": [
        {
          "internalType": "bool",
          "name": "",
          "type": "bool"
        }
      ],
      "stateMutability": "view",
      "type": "function"
    },
    {
      "inputs": [
        {
          "internalType": "address",
          "name": "owner",
          "type": "address"
        },
        {
          "internalType": "address",
          "name": "operator",
          "type": "address"
        }
      ],
      "name": "isApprovedForAll",
      "outputs": [
        {
          "internalType": "bool",
          "name": "",
          "type": "bool"
        }
      ],
      "stateMutability": "view",
      "type": "function"
    },
    {
      "inputs": [],
      "name": "name",
      "outputs": [
        {
          "internalType": "string",
          "name": "",
          "type": "string"
        }
      ],
      "stateMutability": "view",
      "type": "function"
    },
    {
      "inputs": [
        {
          "internalType": "uint256",
          "name": "tokenId",
          "type": "uint256"
        }
      ],
      "name": "ownerOf",
      "outputs": [
        {
          "internalType": "address",
          "name": "",
          "type": "address"
        }
      ],
      "stateMutability": "view",
      "type": "function"
    },
    {
      "inputs": [],
      "name": "pause",
      "outputs": [],
      "stateMutability": "nonpayable",
      "type": "function"
    },
    {
      "inputs": [],
      "name": "paused",
      "outputs": [
        {
          "internalType": "bool",
          "name": "",
          "type": "bool"
        }
      ],
      "stateMutability": "view",
      "type": "function"
    },
    {
      "inputs": [
        {
          "internalType": "bytes32",
          "name": "role",
          "type": "bytes32"
        },
        {
          "internalType": "address",
          "name": "account",
          "type": "address"
        }
      ],
      "name": "renounceRole",
      "outputs": [],
      "stateMutability": "nonpayable",
      "type": "function"
    },
    {
      "inputs": [
        {
          "internalType": "bytes32",
          "name": "role",
          "type": "bytes32"
        },
        {
          "internalType": "address",
          "name": "account",
          "type": "address"
        }
      ],
      "name": "revokeRole",
      "outputs": [],
      "stateMutability": "nonpayable",
      "type": "function"
    },
    {
      "inputs": [
        {
          "internalType": "address",
          "name": "to",
          "type": "address"
        }
      ],
      "name": "safeMint",
      "outputs": [],
      "stateMutability": "nonpayable",
      "type": "function"
    },
    {
      "inputs": [
        {
          "internalType": "address",
          "name": "from",
          "type": "address"
        },
        {
          "internalType": "address",
          "name": "to",
          "type": "address"
        },
        {
          "internalType": "uint256",
          "name": "tokenId",
          "type": "uint256"
        }
      ],
      "name": "safeTransferFrom",
      "outputs": [],
      "stateMutability": "nonpayable",
      "type": "function"
    },
    {
      "inputs": [
        {
          "internalType": "address",
          "name": "from",
          "type": "address"
        },
        {
          "internalType": "address",
          "name": "to",
          "type": "address"
        },
        {
          "internalType": "uint256",
          "name": "tokenId",
          "type": "uint256"
        },
        {
          "internalType": "bytes",
          "name": "data",
          "type": "bytes"
        }
      ],
      "name": "safeTransferFrom",
      "outputs": [],
      "stateMutability": "nonpayable",
      "type": "function"
    },
    {
      "inputs": [
        {
          "internalType": "address",
          "name": "operator",
          "type": "address"
        },
        {
          "internalType": "bool",
          "name": "approved",
          "type": "bool"
        }
      ],
      "name": "setApprovalForAll",
      "outputs": [],
      "stateMutability": "nonpayable",
      "type": "function"
    },
    {
      "inputs": [
        {
          "internalType": "bytes4",
          "name": "interfaceId",
          "type": "bytes4"
        }
      ],
      "name": "supportsInterface",
      "outputs": [
        {
          "internalType": "bool",
          "name": "",
          "type": "bool"
        }
      ],
      "stateMutability": "view",
      "type": "function"
    },
    {
      "inputs": [],
      "name": "symbol",
      "outputs": [
        {
          "internalType": "string",
          "name": "",
          "type": "string"
        }
      ],
      "stateMutability": "view",
      "type": "function"
    },
    {
      "inputs": [
        {
          "internalType": "uint256",
          "name": "tokenId",
          "type": "uint256"
        }
      ],
      "name": "tokenURI",
      "outputs": [
        {
          "internalType": "string",
          "name": "",
          "type": "string"
        }
      ],
      "stateMutability": "view",
      "type": "function"
    },
    {
      "inputs": [
        {
          "internalType": "address",
          "name": "from",
          "type": "address"
        },
        {
          "internalType": "address",
          "name": "to",
          "type": "address"
        },
        {
          "internalType": "uint256",
          "name": "tokenId",
          "type": "uint256"
        }
      ],
      "name": "transferFrom",
      "outputs": [],
      "stateMutability": "nonpayable",
      "type": "function"
    },
    {
      "inputs": [],
      "name": "unpause",
      "outputs": [],
      "stateMutability": "nonpayable",
      "type": "function"
    }
  ],
  "bytecode": {
    "object": "0x60806040523480156200001157600080fd5b50604051620022003803806200220083398101604081905262000034916200036d565b8351849084906200004d906000906020850190620001e9565b50805162000063906001906020840190620001e9565b50506006805460ff19169055506200007d60003362000144565b620000a97f65d7a28e3265b37a6474929f336521b332c1681b933f6cb9f3376673440d862a3362000144565b620000c4600080516020620021e08339815191523362000144565b60005b815181101562000123576200010e600080516020620021e0833981519152838381518110620000fa57620000fa620004a9565b60200260200101516200014460201b60201c565b806200011a81620004bf565b915050620000c7565b50815162000139906008906020850190620001e9565b505050505062000523565b60008281526007602090815260408083206001600160a01b038516845290915290205460ff16620001e55760008281526007602090815260408083206001600160a01b03851684529091529020805460ff19166001179055620001a43390565b6001600160a01b0316816001600160a01b0316837f2f8788117e7eff1d82e926ec794901d17c78024a50270940304540a733656f0d60405160405180910390a45b5050565b828054620001f790620004e7565b90600052602060002090601f0160209004810192826200021b576000855562000266565b82601f106200023657805160ff191683800117855562000266565b8280016001018555821562000266579182015b828111156200026657825182559160200191906001019062000249565b506200027492915062000278565b5090565b5b8082111562000274576000815560010162000279565b634e487b7160e01b600052604160045260246000fd5b604051601f8201601f191681016001600160401b0381118282101715620002d057620002d06200028f565b604052919050565b600082601f830112620002ea57600080fd5b81516001600160401b038111156200030657620003066200028f565b60206200031c601f8301601f19168201620002a5565b82815285828487010111156200033157600080fd5b60005b838110156200035157858101830151828201840152820162000334565b83811115620003635760008385840101525b5095945050505050565b600080600080608085870312156200038457600080fd5b84516001600160401b03808211156200039c57600080fd5b620003aa88838901620002d8565b9550602091508187015181811115620003c257600080fd5b620003d089828a01620002d8565b955050604087015181811115620003e657600080fd5b620003f489828a01620002d8565b9450506060870151818111156200040a57600080fd5b8701601f810189136200041c57600080fd5b8051828111156200043157620004316200028f565b8060051b925062000444848401620002a5565b818152928201840192848101908b8511156200045f57600080fd5b928501925b848410156200049957835192506001600160a01b0383168314620004885760008081fd5b828252928501929085019062000464565b989b979a50959850505050505050565b634e487b7160e01b600052603260045260246000fd5b600060018201620004e057634e487b7160e01b600052601160045260246000fd5b5060010190565b600181811c90821680620004fc57607f821691505b6020821081036200051d57634e487b7160e01b600052602260045260246000fd5b50919050565b611cad80620005336000396000f3fe608060405234801561001057600080fd5b50600436106101735760003560e01c80636352211e116100de578063a22cb46511610097578063d539139311610071578063d539139314610322578063d547741f14610349578063e63ab1e91461035c578063e985e9c51461038357600080fd5b8063a22cb465146102e9578063b88d4fde146102fc578063c87b56dd1461030f57600080fd5b80636352211e1461029857806370a08231146102ab5780638456cb59146102be57806391d14854146102c657806395d89b41146102d9578063a217fddf146102e157600080fd5b80632f2ff15d116101305780632f2ff15d1461023957806336568abe1461024c5780633f4ba83a1461025f57806340d097c31461026757806342842e0e1461027a5780635c975abb1461028d57600080fd5b806301ffc9a71461017857806306fdde03146101a0578063081812fc146101b5578063095ea7b3146101e057806323b872dd146101f5578063248a9ca314610208575b600080fd5b61018b6101863660046116f2565b6103bf565b60405190151581526020015b60405180910390f35b6101a86103d0565b6040516101979190611767565b6101c86101c336600461177a565b610462565b6040516001600160a01b039091168152602001610197565b6101f36101ee3660046117af565b6104fc565b005b6101f36102033660046117d9565b610611565b61022b61021636600461177a565b60009081526007602052604090206001015490565b604051908152602001610197565b6101f3610247366004611815565b610642565b6101f361025a366004611815565b610667565b6101f36106e5565b6101f3610275366004611841565b61071a565b6101f36102883660046117d9565b6107f9565b60065460ff1661018b565b6101c86102a636600461177a565b610814565b61022b6102b9366004611841565b61088b565b6101f3610911565b61018b6102d4366004611815565b610943565b6101a861096e565b61022b600081565b6101f36102f736600461185c565b61097d565b6101f361030a3660046118ae565b610988565b6101a861031d36600461177a565b6109c0565b61022b7f9f2df0fed2c77648de5860a4cc508cd0818c85b8b8a1ab4ceeef8d981c8956a681565b6101f3610357366004611815565b610a9b565b61022b7f65d7a28e3265b37a6474929f336521b332c1681b933f6cb9f3376673440d862a81565b61018b61039136600461198a565b6001600160a01b03918216600090815260056020908152604080832093909416825291909152205460ff1690565b60006103ca82610ac0565b92915050565b6060600080546103df906119b4565b80601f016020809104026020016040519081016040528092919081815260200182805461040b906119b4565b80156104585780601f1061042d57610100808354040283529160200191610458565b820191906000526020600020905b81548152906001019060200180831161043b57829003601f168201915b5050505050905090565b6000818152600260205260408120546001600160a01b03166104e05760405162461bcd60e51b815260206004820152602c60248201527f4552433732313a20617070726f76656420717565727920666f72206e6f6e657860448201526b34b9ba32b73a103a37b5b2b760a11b60648201526084015b60405180910390fd5b506000908152600460205260409020546001600160a01b031690565b600061050782610814565b9050806001600160a01b0316836001600160a01b0316036105745760405162461bcd60e51b815260206004820152602160248201527f4552433732313a20617070726f76616c20746f2063757272656e74206f776e656044820152603960f91b60648201526084016104d7565b336001600160a01b038216148061059057506105908133610391565b6106025760405162461bcd60e51b815260206004820152603860248201527f4552433732313a20617070726f76652063616c6c6572206973206e6f74206f7760448201527f6e6572206e6f7220617070726f76656420666f7220616c6c000000000000000060648201526084016104d7565b61060c8383610ae5565b505050565b61061b3382610b53565b6106375760405162461bcd60e51b81526004016104d7906119ee565b61060c838383610c4a565b60008281526007602052604090206001015461065d81610de6565b61060c8383610df0565b6001600160a01b03811633146106d75760405162461bcd60e51b815260206004820152602f60248201527f416363657373436f6e74726f6c3a2063616e206f6e6c792072656e6f756e636560448201526e103937b632b9903337b91039b2b63360891b60648201526084016104d7565b6106e18282610e76565b5050565b7f65d7a28e3265b37a6474929f336521b332c1681b933f6cb9f3376673440d862a61070f81610de6565b610717610edd565b50565b7f9f2df0fed2c77648de5860a4cc508cd0818c85b8b8a1ab4ceeef8d981c8956a661074481610de6565b60065460ff161561078a5760405162461bcd60e51b815260206004820152601060248201526f14185d5cd8589b194e881c185d5cd95960821b60448201526064016104d7565b6107938261088b565b156107d45760405162461bcd60e51b815260206004820152601160248201527043616e6e6f74206d696e7420747769636560781b60448201526064016104d7565b60006107df60095490565b90506107ef600980546001019055565b61060c8382610f70565b61060c83838360405180602001604052806000815250610988565b6000818152600260205260408120546001600160a01b0316806103ca5760405162461bcd60e51b815260206004820152602960248201527f4552433732313a206f776e657220717565727920666f72206e6f6e657869737460448201526832b73a103a37b5b2b760b91b60648201526084016104d7565b60006001600160a01b0382166108f55760405162461bcd60e51b815260206004820152602960248201527f4552433732313a2061646472657373207a65726f206973206e6f7420612076616044820152683634b21037bbb732b960b91b60648201526084016104d7565b506001600160a01b031660009081526003602052604090205490565b7f65d7a28e3265b37a6474929f336521b332c1681b933f6cb9f3376673440d862a61093b81610de6565b610717610f8a565b60009182526007602090815260408084206001600160a01b0393909316845291905290205460ff1690565b6060600180546103df906119b4565b6106e1338383611005565b6109923383610b53565b6109ae5760405162461bcd60e51b81526004016104d7906119ee565b6109ba848484846110d3565b50505050565b6000818152600260205260409020546060906001600160a01b0316610a3f5760405162461bcd60e51b815260206004820152602f60248201527f4552433732314d657461646174613a2055524920717565727920666f72206e6f60448201526e3732bc34b9ba32b73a103a37b5b2b760891b60648201526084016104d7565b6000610a49611106565b90506000815111610a695760405180602001604052806000815250610a94565b80610a7384611115565b604051602001610a84929190611a3f565b6040516020818303038152906040525b9392505050565b600082815260076020526040902060010154610ab681610de6565b61060c8383610e76565b60006001600160e01b03198216637965db0b60e01b14806103ca57506103ca82611216565b600081815260046020526040902080546001600160a01b0319166001600160a01b0384169081179091558190610b1a82610814565b6001600160a01b03167f8c5be1e5ebec7d5bd14f71427d1e84f3dd0314c0f7b2291e5b200ac8c7c3b92560405160405180910390a45050565b6000818152600260205260408120546001600160a01b0316610bcc5760405162461bcd60e51b815260206004820152602c60248201527f4552433732313a206f70657261746f7220717565727920666f72206e6f6e657860448201526b34b9ba32b73a103a37b5b2b760a11b60648201526084016104d7565b6000610bd783610814565b9050806001600160a01b0316846001600160a01b03161480610c1e57506001600160a01b0380821660009081526005602090815260408083209388168352929052205460ff165b80610c425750836001600160a01b0316610c3784610462565b6001600160a01b0316145b949350505050565b826001600160a01b0316610c5d82610814565b6001600160a01b031614610cc15760405162461bcd60e51b815260206004820152602560248201527f4552433732313a207472616e736665722066726f6d20696e636f72726563742060448201526437bbb732b960d91b60648201526084016104d7565b6001600160a01b038216610d235760405162461bcd60e51b8152602060048201526024808201527f4552433732313a207472616e7366657220746f20746865207a65726f206164646044820152637265737360e01b60648201526084016104d7565b610d2e600082610ae5565b6001600160a01b0383166000908152600360205260408120805460019290610d57908490611a84565b90915550506001600160a01b0382166000908152600360205260408120805460019290610d85908490611a9b565b909155505060008181526002602052604080822080546001600160a01b0319166001600160a01b0386811691821790925591518493918716917fddf252ad1be2c89b69c2b068fc378daa952ba7f163c4a11628f55a4df523b3ef91a4505050565b6107178133611266565b610dfa8282610943565b6106e15760008281526007602090815260408083206001600160a01b03851684529091529020805460ff19166001179055610e323390565b6001600160a01b0316816001600160a01b0316837f2f8788117e7eff1d82e926ec794901d17c78024a50270940304540a733656f0d60405160405180910390a45050565b610e808282610943565b156106e15760008281526007602090815260408083206001600160a01b0385168085529252808320805460ff1916905551339285917ff6391f5c32d9c69d2a47ea670b442974b53935d1edc7fd64eb21e047a839171b9190a45050565b60065460ff16610f265760405162461bcd60e51b815260206004820152601460248201527314185d5cd8589b194e881b9bdd081c185d5cd95960621b60448201526064016104d7565b6006805460ff191690557f5db9ee0a495bf2e6ff9c91a7834c1ba4fdd244a5e8aa4e537bd38aeae4b073aa335b6040516001600160a01b03909116815260200160405180910390a1565b6106e18282604051806020016040528060008152506112ca565b60065460ff1615610fd05760405162461bcd60e51b815260206004820152601060248201526f14185d5cd8589b194e881c185d5cd95960821b60448201526064016104d7565b6006805460ff191660011790557f62e78cea01bee320cd4e420270b5ea74000d11b0c9f74754ebdbfc544b05a258610f533390565b816001600160a01b0316836001600160a01b0316036110665760405162461bcd60e51b815260206004820152601960248201527f4552433732313a20617070726f766520746f2063616c6c65720000000000000060448201526064016104d7565b6001600160a01b03838116600081815260056020908152604080832094871680845294825291829020805460ff191686151590811790915591519182527f17307eab39ab6107e8899845ad3d59bd9653f200f220920489ca2b5937696c31910160405180910390a3505050565b6110de848484610c4a565b6110ea848484846112fd565b6109ba5760405162461bcd60e51b81526004016104d790611ab3565b6060600880546103df906119b4565b60608160000361113c5750506040805180820190915260018152600360fc1b602082015290565b8160005b8115611166578061115081611b05565b915061115f9050600a83611b34565b9150611140565b60008167ffffffffffffffff81111561118157611181611898565b6040519080825280601f01601f1916602001820160405280156111ab576020820181803683370190505b5090505b8415610c42576111c0600183611a84565b91506111cd600a86611b48565b6111d8906030611a9b565b60f81b8183815181106111ed576111ed611b5c565b60200101906001600160f81b031916908160001a90535061120f600a86611b34565b94506111af565b60006001600160e01b031982166380ac58cd60e01b148061124757506001600160e01b03198216635b5e139f60e01b145b806103ca57506301ffc9a760e01b6001600160e01b03198316146103ca565b6112708282610943565b6106e157611288816001600160a01b031660146113fe565b6112938360206113fe565b6040516020016112a4929190611b72565b60408051601f198184030181529082905262461bcd60e51b82526104d791600401611767565b6112d4838361159a565b6112e160008484846112fd565b61060c5760405162461bcd60e51b81526004016104d790611ab3565b60006001600160a01b0384163b156113f357604051630a85bd0160e11b81526001600160a01b0385169063150b7a0290611341903390899088908890600401611be7565b6020604051808303816000875af192505050801561137c575060408051601f3d908101601f1916820190925261137991810190611c24565b60015b6113d9573d8080156113aa576040519150601f19603f3d011682016040523d82523d6000602084013e6113af565b606091505b5080516000036113d15760405162461bcd60e51b81526004016104d790611ab3565b805181602001fd5b6001600160e01b031916630a85bd0160e11b149050610c42565b506001949350505050565b6060600061140d836002611c41565b611418906002611a9b565b67ffffffffffffffff81111561143057611430611898565b6040519080825280601f01601f19166020018201604052801561145a576020820181803683370190505b509050600360fc1b8160008151811061147557611475611b5c565b60200101906001600160f81b031916908160001a905350600f60fb1b816001815181106114a4576114a4611b5c565b60200101906001600160f81b031916908160001a90535060006114c8846002611c41565b6114d3906001611a9b565b90505b600181111561154b576f181899199a1a9b1b9c1cb0b131b232b360811b85600f166010811061150757611507611b5c565b1a60f81b82828151811061151d5761151d611b5c565b60200101906001600160f81b031916908160001a90535060049490941c9361154481611c60565b90506114d6565b508315610a945760405162461bcd60e51b815260206004820181905260248201527f537472696e67733a20686578206c656e67746820696e73756666696369656e7460448201526064016104d7565b6001600160a01b0382166115f05760405162461bcd60e51b815260206004820181905260248201527f4552433732313a206d696e7420746f20746865207a65726f206164647265737360448201526064016104d7565b6000818152600260205260409020546001600160a01b0316156116555760405162461bcd60e51b815260206004820152601c60248201527f4552433732313a20746f6b656e20616c7265616479206d696e7465640000000060448201526064016104d7565b6001600160a01b038216600090815260036020526040812080546001929061167e908490611a9b565b909155505060008181526002602052604080822080546001600160a01b0319166001600160a01b03861690811790915590518392907fddf252ad1be2c89b69c2b068fc378daa952ba7f163c4a11628f55a4df523b3ef908290a45050565b6001600160e01b03198116811461071757600080fd5b60006020828403121561170457600080fd5b8135610a94816116dc565b60005b8381101561172a578181015183820152602001611712565b838111156109ba5750506000910152565b6000815180845261175381602086016020860161170f565b601f01601f19169290920160200192915050565b602081526000610a94602083018461173b565b60006020828403121561178c57600080fd5b5035919050565b80356001600160a01b03811681146117aa57600080fd5b919050565b600080604083850312156117c257600080fd5b6117cb83611793565b946020939093013593505050565b6000806000606084860312156117ee57600080fd5b6117f784611793565b925061180560208501611793565b9150604084013590509250925092565b6000806040838503121561182857600080fd5b8235915061183860208401611793565b90509250929050565b60006020828403121561185357600080fd5b610a9482611793565b6000806040838503121561186f57600080fd5b61187883611793565b91506020830135801515811461188d57600080fd5b809150509250929050565b634e487b7160e01b600052604160045260246000fd5b600080600080608085870312156118c457600080fd5b6118cd85611793565b93506118db60208601611793565b925060408501359150606085013567ffffffffffffffff808211156118ff57600080fd5b818701915087601f83011261191357600080fd5b81358181111561192557611925611898565b604051601f8201601f19908116603f0116810190838211818310171561194d5761194d611898565b816040528281528a602084870101111561196657600080fd5b82602086016020830137600060208483010152809550505050505092959194509250565b6000806040838503121561199d57600080fd5b6119a683611793565b915061183860208401611793565b600181811c908216806119c857607f821691505b6020821081036119e857634e487b7160e01b600052602260045260246000fd5b50919050565b60208082526031908201527f4552433732313a207472616e736665722063616c6c6572206973206e6f74206f6040820152701ddb995c881b9bdc88185c1c1c9bdd9959607a1b606082015260800190565b60008351611a5181846020880161170f565b835190830190611a6581836020880161170f565b01949350505050565b634e487b7160e01b600052601160045260246000fd5b600082821015611a9657611a96611a6e565b500390565b60008219821115611aae57611aae611a6e565b500190565b60208082526032908201527f4552433732313a207472616e7366657220746f206e6f6e20455243373231526560408201527131b2b4bb32b91034b6b83632b6b2b73a32b960711b606082015260800190565b600060018201611b1757611b17611a6e565b5060010190565b634e487b7160e01b600052601260045260246000fd5b600082611b4357611b43611b1e565b500490565b600082611b5757611b57611b1e565b500690565b634e487b7160e01b600052603260045260246000fd5b7f416363657373436f6e74726f6c3a206163636f756e7420000000000000000000815260008351611baa81601785016020880161170f565b7001034b99036b4b9b9b4b733903937b6329607d1b6017918401918201528351611bdb81602884016020880161170f565b01602801949350505050565b6001600160a01b0385811682528416602082015260408101839052608060608201819052600090611c1a9083018461173b565b9695505050505050565b600060208284031215611c3657600080fd5b8151610a94816116dc565b6000816000190483118215151615611c5b57611c5b611a6e565b500290565b600081611c6f57611c6f611a6e565b50600019019056fea264697066735822122050594ab5f79182d9d5dee2896ab71ce86621ae48f44c1a9938e02e92f5950b4a64736f6c634300080d00339f2df0fed2c77648de5860a4cc508cd0818c85b8b8a1ab4ceeef8d981c8956a6",
    "linkReferences": {}
  }
}