{
  "abi": [
    {
      "inputs": [
        {
          "internalType": "string",
          "name": "name",
          "type": "string"
        },
        {
          "internalType": "string",
          "name": "symbol",
          "type": "string"
        },
        {
          "internalType": "address[]",
          "name": "minters",
          "type": "address[]"
        }
      ],
      "stateMutability": "nonpayable",
      "type": "constructor"
    },
    {
      "anonymous": false,
      "inputs": [
        {
          "indexed": true,
          "internalType": "address",
          "name": "owner",
          "type": "address"
        },
        {
          "indexed": true,
          "internalType": "address",
          "name": "approved",
          "type": "address"
        },
        {
          "indexed": true,
          "internalType": "uint256",
          "name": "tokenId",
          "type": "uint256"
        }
      ],
      "name": "Approval",
      "type": "event"
    },
    {
      "anonymous": false,
      "inputs": [
        {
          "indexed": true,
          "internalType": "address",
          "name": "owner",
          "type": "address"
        },
        {
          "indexed": true,
          "internalType": "address",
          "name": "operator",
          "type": "address"
        },
        {
          "indexed": false,
          "internalType": "bool",
          "name": "approved",
          "type": "bool"
        }
      ],
      "name": "ApprovalForAll",
      "type": "event"
    },
    {
      "anonymous": false,
      "inputs": [
        {
          "indexed": false,
          "internalType": "address",
          "name": "account",
          "type": "address"
        }
      ],
      "name": "Paused",
      "type": "event"
    },
    {
      "anonymous": false,
      "inputs": [
        {
          "indexed": true,
          "internalType": "bytes32",
          "name": "role",
          "type": "bytes32"
        },
        {
          "indexed": true,
          "internalType": "bytes32",
          "name": "previousAdminRole",
          "type": "bytes32"
        },
        {
          "indexed": true,
          "internalType": "bytes32",
          "name": "newAdminRole",
          "type": "bytes32"
        }
      ],
      "name": "RoleAdminChanged",
      "type": "event"
    },
    {
      "anonymous": false,
      "inputs": [
        {
          "indexed": true,
          "internalType": "bytes32",
          "name": "role",
          "type": "bytes32"
        },
        {
          "indexed": true,
          "internalType": "address",
          "name": "account",
          "type": "address"
        },
        {
          "indexed": true,
          "internalType": "address",
          "name": "sender",
          "type": "address"
        }
      ],
      "name": "RoleGranted",
      "type": "event"
    },
    {
      "anonymous": false,
      "inputs": [
        {
          "indexed": true,
          "internalType": "bytes32",
          "name": "role",
          "type": "bytes32"
        },
        {
          "indexed": true,
          "internalType": "address",
          "name": "account",
          "type": "address"
        },
        {
          "indexed": true,
          "internalType": "address",
          "name": "sender",
          "type": "address"
        }
      ],
      "name": "RoleRevoked",
      "type": "event"
    },
    {
      "anonymous": false,
      "inputs": [
        {
          "indexed": true,
          "internalType": "address",
          "name": "from",
          "type": "address"
        },
        {
          "indexed": true,
          "internalType": "address",
          "name": "to",
          "type": "address"
        },
        {
          "indexed": true,
          "internalType": "uint256",
          "name": "tokenId",
          "type": "uint256"
        }
      ],
      "name": "Transfer",
      "type": "event"
    },
    {
      "anonymous": false,
      "inputs": [
        {
          "indexed": false,
          "internalType": "address",
          "name": "account",
          "type": "address"
        }
      ],
      "name": "Unpaused",
      "type": "event"
    },
    {
      "inputs": [],
      "name": "DEFAULT_ADMIN_ROLE",
      "outputs": [
        {
          "internalType": "bytes32",
          "name": "",
          "type": "bytes32"
        }
      ],
      "stateMutability": "view",
      "type": "function"
    },
    {
      "inputs": [],
      "name": "MINTER_ROLE",
      "outputs": [
        {
          "internalType": "bytes32",
          "name": "",
          "type": "bytes32"
        }
      ],
      "stateMutability": "view",
      "type": "function"
    },
    {
      "inputs": [],
      "name": "PAUSER_ROLE",
      "outputs": [
        {
          "internalType": "bytes32",
          "name": "",
          "type": "bytes32"
        }
      ],
      "stateMutability": "view",
      "type": "function"
    },
    {
      "inputs": [
        {
          "internalType": "address",
          "name": "to",
          "type": "address"
        },
        {
          "internalType": "uint256",
          "name": "tokenId",
          "type": "uint256"
        }
      ],
      "name": "approve",
      "outputs": [],
      "stateMutability": "nonpayable",
      "type": "function"
    },
    {
      "inputs": [
        {
          "internalType": "address",
          "name": "owner",
          "type": "address"
        }
      ],
      "name": "balanceOf",
      "outputs": [
        {
          "internalType": "uint256",
          "name": "",
          "type": "uint256"
        }
      ],
      "stateMutability": "view",
      "type": "function"
    },
    {
      "inputs": [
        {
          "internalType": "uint256",
          "name": "tokenId",
          "type": "uint256"
        }
      ],
      "name": "getApproved",
      "outputs": [
        {
          "internalType": "address",
          "name": "",
          "type": "address"
        }
      ],
      "stateMutability": "view",
      "type": "function"
    },
    {
      "inputs": [
        {
          "internalType": "bytes32",
          "name": "role",
          "type": "bytes32"
        }
      ],
      "name": "getRoleAdmin",
      "outputs": [
        {
          "internalType": "bytes32",
          "name": "",
          "type": "bytes32"
        }
      ],
      "stateMutability": "view",
      "type": "function"
    },
    {
      "inputs": [
        {
          "internalType": "bytes32",
          "name": "role",
          "type": "bytes32"
        },
        {
          "internalType": "address",
          "name": "account",
          "type": "address"
        }
      ],
      "name": "grantRole",
      "outputs": [],
      "stateMutability": "nonpayable",
      "type": "function"
    },
    {
      "inputs": [
        {
          "internalType": "bytes32",
          "name": "role",
          "type": "bytes32"
        },
        {
          "internalType": "address",
          "name": "account",
          "type": "address"
        }
      ],
      "name": "hasRole",
      "outputs": [
        {
          "internalType": "bool",
          "name": "",
          "type": "bool"
        }
      ],
      "stateMutability": "view",
      "type": "function"
    },
    {
      "inputs": [
        {
          "internalType": "address",
          "name": "owner",
          "type": "address"
        },
        {
          "internalType": "address",
          "name": "operator",
          "type": "address"
        }
      ],
      "name": "isApprovedForAll",
      "outputs": [
        {
          "internalType": "bool",
          "name": "",
          "type": "bool"
        }
      ],
      "stateMutability": "view",
      "type": "function"
    },
    {
      "inputs": [],
      "name": "name",
      "outputs": [
        {
          "internalType": "string",
          "name": "",
          "type": "string"
        }
      ],
      "stateMutability": "view",
      "type": "function"
    },
    {
      "inputs": [
        {
          "internalType": "uint256",
          "name": "tokenId",
          "type": "uint256"
        }
      ],
      "name": "ownerOf",
      "outputs": [
        {
          "internalType": "address",
          "name": "",
          "type": "address"
        }
      ],
      "stateMutability": "view",
      "type": "function"
    },
    {
      "inputs": [],
      "name": "paused",
      "outputs": [
        {
          "internalType": "bool",
          "name": "",
          "type": "bool"
        }
      ],
      "stateMutability": "view",
      "type": "function"
    },
    {
      "inputs": [
        {
          "internalType": "bytes32",
          "name": "role",
          "type": "bytes32"
        },
        {
          "internalType": "address",
          "name": "account",
          "type": "address"
        }
      ],
      "name": "renounceRole",
      "outputs": [],
      "stateMutability": "nonpayable",
      "type": "function"
    },
    {
      "inputs": [
        {
          "internalType": "bytes32",
          "name": "role",
          "type": "bytes32"
        },
        {
          "internalType": "address",
          "name": "account",
          "type": "address"
        }
      ],
      "name": "revokeRole",
      "outputs": [],
      "stateMutability": "nonpayable",
      "type": "function"
    },
    {
      "inputs": [
        {
          "internalType": "address",
          "name": "from",
          "type": "address"
        },
        {
          "internalType": "address",
          "name": "to",
          "type": "address"
        },
        {
          "internalType": "uint256",
          "name": "tokenId",
          "type": "uint256"
        }
      ],
      "name": "safeTransferFrom",
      "outputs": [],
      "stateMutability": "nonpayable",
      "type": "function"
    },
    {
      "inputs": [
        {
          "internalType": "address",
          "name": "from",
          "type": "address"
        },
        {
          "internalType": "address",
          "name": "to",
          "type": "address"
        },
        {
          "internalType": "uint256",
          "name": "tokenId",
          "type": "uint256"
        },
        {
          "internalType": "bytes",
          "name": "data",
          "type": "bytes"
        }
      ],
      "name": "safeTransferFrom",
      "outputs": [],
      "stateMutability": "nonpayable",
      "type": "function"
    },
    {
      "inputs": [
        {
          "internalType": "address",
          "name": "operator",
          "type": "address"
        },
        {
          "internalType": "bool",
          "name": "approved",
          "type": "bool"
        }
      ],
      "name": "setApprovalForAll",
      "outputs": [],
      "stateMutability": "nonpayable",
      "type": "function"
    },
    {
      "inputs": [
        {
          "internalType": "bytes4",
          "name": "interfaceId",
          "type": "bytes4"
        }
      ],
      "name": "supportsInterface",
      "outputs": [
        {
          "internalType": "bool",
          "name": "",
          "type": "bool"
        }
      ],
      "stateMutability": "view",
      "type": "function"
    },
    {
      "inputs": [],
      "name": "symbol",
      "outputs": [
        {
          "internalType": "string",
          "name": "",
          "type": "string"
        }
      ],
      "stateMutability": "view",
      "type": "function"
    },
    {
      "inputs": [
        {
          "internalType": "uint256",
          "name": "tokenId",
          "type": "uint256"
        }
      ],
      "name": "tokenURI",
      "outputs": [
        {
          "internalType": "string",
          "name": "",
          "type": "string"
        }
      ],
      "stateMutability": "view",
      "type": "function"
    },
    {
      "inputs": [
        {
          "internalType": "address",
          "name": "from",
          "type": "address"
        },
        {
          "internalType": "address",
          "name": "to",
          "type": "address"
        },
        {
          "internalType": "uint256",
          "name": "tokenId",
          "type": "uint256"
        }
      ],
      "name": "transferFrom",
      "outputs": [],
      "stateMutability": "nonpayable",
      "type": "function"
    }
  ],
  "bytecode": {
    "object": "0x60806040523480156200001157600080fd5b5060405162001d8e38038062001d8e833981016040819052620000349162000356565b8251839083906200004d906000906020850190620001d2565b50805162000063906001906020840190620001d2565b50506006805460ff19169055506200007d6000336200012d565b620000a97f65d7a28e3265b37a6474929f336521b332c1681b933f6cb9f3376673440d862a336200012d565b620000c460008051602062001d6e833981519152336200012d565b60005b815181101562000123576200010e60008051602062001d6e833981519152838381518110620000fa57620000fa6200046d565b60200260200101516200012d60201b60201c565b806200011a8162000483565b915050620000c7565b50505050620004e7565b60008281526007602090815260408083206001600160a01b038516845290915290205460ff16620001ce5760008281526007602090815260408083206001600160a01b03851684529091529020805460ff191660011790556200018d3390565b6001600160a01b0316816001600160a01b0316837f2f8788117e7eff1d82e926ec794901d17c78024a50270940304540a733656f0d60405160405180910390a45b5050565b828054620001e090620004ab565b90600052602060002090601f0160209004810192826200020457600085556200024f565b82601f106200021f57805160ff19168380011785556200024f565b828001600101855582156200024f579182015b828111156200024f57825182559160200191906001019062000232565b506200025d92915062000261565b5090565b5b808211156200025d576000815560010162000262565b634e487b7160e01b600052604160045260246000fd5b604051601f8201601f191681016001600160401b0381118282101715620002b957620002b962000278565b604052919050565b600082601f830112620002d357600080fd5b81516001600160401b03811115620002ef57620002ef62000278565b602062000305601f8301601f191682016200028e565b82815285828487010111156200031a57600080fd5b60005b838110156200033a5785810183015182820184015282016200031d565b838111156200034c5760008385840101525b5095945050505050565b6000806000606084860312156200036c57600080fd5b83516001600160401b03808211156200038457600080fd5b6200039287838801620002c1565b9450602091508186015181811115620003aa57600080fd5b620003b888828901620002c1565b945050604086015181811115620003ce57600080fd5b8601601f81018813620003e057600080fd5b805182811115620003f557620003f562000278565b8060051b9250620004088484016200028e565b818152928201840192848101908a8511156200042357600080fd5b928501925b848410156200045d57835192506001600160a01b03831683146200044c5760008081fd5b828252928501929085019062000428565b8096505050505050509250925092565b634e487b7160e01b600052603260045260246000fd5b600060018201620004a457634e487b7160e01b600052601160045260246000fd5b5060010190565b600181811c90821680620004c057607f821691505b602082108103620004e157634e487b7160e01b600052602260045260246000fd5b50919050565b61187780620004f76000396000f3fe608060405234801561001057600080fd5b50600436106101425760003560e01c806370a08231116100b8578063b88d4fde1161007c578063b88d4fde146102a8578063c87b56dd146102bb578063d5391393146102ce578063d547741f146102f5578063e63ab1e914610308578063e985e9c51461032f57600080fd5b806370a082311461025f57806391d148541461027257806395d89b4114610285578063a217fddf1461028d578063a22cb4651461029557600080fd5b8063248a9ca31161010a578063248a9ca3146101d75780632f2ff15d1461020857806336568abe1461021b57806342842e0e1461022e5780635c975abb146102415780636352211e1461024c57600080fd5b806301ffc9a71461014757806306fdde031461016f578063081812fc14610184578063095ea7b3146101af57806323b872dd146101c4575b600080fd5b61015a6101553660046112bc565b61036b565b60405190151581526020015b60405180910390f35b61017761037c565b6040516101669190611331565b610197610192366004611344565b61040e565b6040516001600160a01b039091168152602001610166565b6101c26101bd366004611379565b6104a8565b005b6101c26101d23660046113a3565b6105bd565b6101fa6101e5366004611344565b60009081526007602052604090206001015490565b604051908152602001610166565b6101c26102163660046113df565b6105ee565b6101c26102293660046113df565b610613565b6101c261023c3660046113a3565b610691565b60065460ff1661015a565b61019761025a366004611344565b6106ac565b6101fa61026d36600461140b565b610723565b61015a6102803660046113df565b6107a9565b6101776107d4565b6101fa600081565b6101c26102a3366004611426565b6107e3565b6101c26102b6366004611478565b6107ee565b6101776102c9366004611344565b610826565b6101fa7f9f2df0fed2c77648de5860a4cc508cd0818c85b8b8a1ab4ceeef8d981c8956a681565b6101c26103033660046113df565b61090e565b6101fa7f65d7a28e3265b37a6474929f336521b332c1681b933f6cb9f3376673440d862a81565b61015a61033d366004611554565b6001600160a01b03918216600090815260056020908152604080832093909416825291909152205460ff1690565b600061037682610933565b92915050565b60606000805461038b9061157e565b80601f01602080910402602001604051908101604052809291908181526020018280546103b79061157e565b80156104045780601f106103d957610100808354040283529160200191610404565b820191906000526020600020905b8154815290600101906020018083116103e757829003601f168201915b5050505050905090565b6000818152600260205260408120546001600160a01b031661048c5760405162461bcd60e51b815260206004820152602c60248201527f4552433732313a20617070726f76656420717565727920666f72206e6f6e657860448201526b34b9ba32b73a103a37b5b2b760a11b60648201526084015b60405180910390fd5b506000908152600460205260409020546001600160a01b031690565b60006104b3826106ac565b9050806001600160a01b0316836001600160a01b0316036105205760405162461bcd60e51b815260206004820152602160248201527f4552433732313a20617070726f76616c20746f2063757272656e74206f776e656044820152603960f91b6064820152608401610483565b336001600160a01b038216148061053c575061053c813361033d565b6105ae5760405162461bcd60e51b815260206004820152603860248201527f4552433732313a20617070726f76652063616c6c6572206973206e6f74206f7760448201527f6e6572206e6f7220617070726f76656420666f7220616c6c00000000000000006064820152608401610483565b6105b88383610958565b505050565b6105c733826109c6565b6105e35760405162461bcd60e51b8152600401610483906115b8565b6105b8838383610abd565b60008281526007602052604090206001015461060981610c59565b6105b88383610c66565b6001600160a01b03811633146106835760405162461bcd60e51b815260206004820152602f60248201527f416363657373436f6e74726f6c3a2063616e206f6e6c792072656e6f756e636560448201526e103937b632b9903337b91039b2b63360891b6064820152608401610483565b61068d8282610cec565b5050565b6105b8838383604051806020016040528060008152506107ee565b6000818152600260205260408120546001600160a01b0316806103765760405162461bcd60e51b815260206004820152602960248201527f4552433732313a206f776e657220717565727920666f72206e6f6e657869737460448201526832b73a103a37b5b2b760b91b6064820152608401610483565b60006001600160a01b03821661078d5760405162461bcd60e51b815260206004820152602960248201527f4552433732313a2061646472657373207a65726f206973206e6f7420612076616044820152683634b21037bbb732b960b91b6064820152608401610483565b506001600160a01b031660009081526003602052604090205490565b60009182526007602090815260408084206001600160a01b0393909316845291905290205460ff1690565b60606001805461038b9061157e565b61068d338383610d53565b6107f833836109c6565b6108145760405162461bcd60e51b8152600401610483906115b8565b61082084848484610e21565b50505050565b6000818152600260205260409020546060906001600160a01b03166108a55760405162461bcd60e51b815260206004820152602f60248201527f4552433732314d657461646174613a2055524920717565727920666f72206e6f60448201526e3732bc34b9ba32b73a103a37b5b2b760891b6064820152608401610483565b60006108bc60408051602081019091526000815290565b905060008151116108dc5760405180602001604052806000815250610907565b806108e684610e54565b6040516020016108f7929190611609565b6040516020818303038152906040525b9392505050565b60008281526007602052604090206001015461092981610c59565b6105b88383610cec565b60006001600160e01b03198216637965db0b60e01b1480610376575061037682610f55565b600081815260046020526040902080546001600160a01b0319166001600160a01b038416908117909155819061098d826106ac565b6001600160a01b03167f8c5be1e5ebec7d5bd14f71427d1e84f3dd0314c0f7b2291e5b200ac8c7c3b92560405160405180910390a45050565b6000818152600260205260408120546001600160a01b0316610a3f5760405162461bcd60e51b815260206004820152602c60248201527f4552433732313a206f70657261746f7220717565727920666f72206e6f6e657860448201526b34b9ba32b73a103a37b5b2b760a11b6064820152608401610483565b6000610a4a836106ac565b9050806001600160a01b0316846001600160a01b03161480610a9157506001600160a01b0380821660009081526005602090815260408083209388168352929052205460ff165b80610ab55750836001600160a01b0316610aaa8461040e565b6001600160a01b0316145b949350505050565b826001600160a01b0316610ad0826106ac565b6001600160a01b031614610b345760405162461bcd60e51b815260206004820152602560248201527f4552433732313a207472616e736665722066726f6d20696e636f72726563742060448201526437bbb732b960d91b6064820152608401610483565b6001600160a01b038216610b965760405162461bcd60e51b8152602060048201526024808201527f4552433732313a207472616e7366657220746f20746865207a65726f206164646044820152637265737360e01b6064820152608401610483565b610ba1600082610958565b6001600160a01b0383166000908152600360205260408120805460019290610bca90849061164e565b90915550506001600160a01b0382166000908152600360205260408120805460019290610bf8908490611665565b909155505060008181526002602052604080822080546001600160a01b0319166001600160a01b0386811691821790925591518493918716917fddf252ad1be2c89b69c2b068fc378daa952ba7f163c4a11628f55a4df523b3ef91a4505050565b610c638133610fa5565b50565b610c7082826107a9565b61068d5760008281526007602090815260408083206001600160a01b03851684529091529020805460ff19166001179055610ca83390565b6001600160a01b0316816001600160a01b0316837f2f8788117e7eff1d82e926ec794901d17c78024a50270940304540a733656f0d60405160405180910390a45050565b610cf682826107a9565b1561068d5760008281526007602090815260408083206001600160a01b0385168085529252808320805460ff1916905551339285917ff6391f5c32d9c69d2a47ea670b442974b53935d1edc7fd64eb21e047a839171b9190a45050565b816001600160a01b0316836001600160a01b031603610db45760405162461bcd60e51b815260206004820152601960248201527f4552433732313a20617070726f766520746f2063616c6c6572000000000000006044820152606401610483565b6001600160a01b03838116600081815260056020908152604080832094871680845294825291829020805460ff191686151590811790915591519182527f17307eab39ab6107e8899845ad3d59bd9653f200f220920489ca2b5937696c31910160405180910390a3505050565b610e2c848484610abd565b610e3884848484611009565b6108205760405162461bcd60e51b81526004016104839061167d565b606081600003610e7b5750506040805180820190915260018152600360fc1b602082015290565b8160005b8115610ea55780610e8f816116cf565b9150610e9e9050600a836116fe565b9150610e7f565b60008167ffffffffffffffff811115610ec057610ec0611462565b6040519080825280601f01601f191660200182016040528015610eea576020820181803683370190505b5090505b8415610ab557610eff60018361164e565b9150610f0c600a86611712565b610f17906030611665565b60f81b818381518110610f2c57610f2c611726565b60200101906001600160f81b031916908160001a905350610f4e600a866116fe565b9450610eee565b60006001600160e01b031982166380ac58cd60e01b1480610f8657506001600160e01b03198216635b5e139f60e01b145b8061037657506301ffc9a760e01b6001600160e01b0319831614610376565b610faf82826107a9565b61068d57610fc7816001600160a01b0316601461110a565b610fd283602061110a565b604051602001610fe392919061173c565b60408051601f198184030181529082905262461bcd60e51b825261048391600401611331565b60006001600160a01b0384163b156110ff57604051630a85bd0160e11b81526001600160a01b0385169063150b7a029061104d9033908990889088906004016117b1565b6020604051808303816000875af1925050508015611088575060408051601f3d908101601f19168201909252611085918101906117ee565b60015b6110e5573d8080156110b6576040519150601f19603f3d011682016040523d82523d6000602084013e6110bb565b606091505b5080516000036110dd5760405162461bcd60e51b81526004016104839061167d565b805181602001fd5b6001600160e01b031916630a85bd0160e11b149050610ab5565b506001949350505050565b6060600061111983600261180b565b611124906002611665565b67ffffffffffffffff81111561113c5761113c611462565b6040519080825280601f01601f191660200182016040528015611166576020820181803683370190505b509050600360fc1b8160008151811061118157611181611726565b60200101906001600160f81b031916908160001a905350600f60fb1b816001815181106111b0576111b0611726565b60200101906001600160f81b031916908160001a90535060006111d484600261180b565b6111df906001611665565b90505b6001811115611257576f181899199a1a9b1b9c1cb0b131b232b360811b85600f166010811061121357611213611726565b1a60f81b82828151811061122957611229611726565b60200101906001600160f81b031916908160001a90535060049490941c936112508161182a565b90506111e2565b5083156109075760405162461bcd60e51b815260206004820181905260248201527f537472696e67733a20686578206c656e67746820696e73756666696369656e746044820152606401610483565b6001600160e01b031981168114610c6357600080fd5b6000602082840312156112ce57600080fd5b8135610907816112a6565b60005b838110156112f45781810151838201526020016112dc565b838111156108205750506000910152565b6000815180845261131d8160208601602086016112d9565b601f01601f19169290920160200192915050565b6020815260006109076020830184611305565b60006020828403121561135657600080fd5b5035919050565b80356001600160a01b038116811461137457600080fd5b919050565b6000806040838503121561138c57600080fd5b6113958361135d565b946020939093013593505050565b6000806000606084860312156113b857600080fd5b6113c18461135d565b92506113cf6020850161135d565b9150604084013590509250925092565b600080604083850312156113f257600080fd5b823591506114026020840161135d565b90509250929050565b60006020828403121561141d57600080fd5b6109078261135d565b6000806040838503121561143957600080fd5b6114428361135d565b91506020830135801515811461145757600080fd5b809150509250929050565b634e487b7160e01b600052604160045260246000fd5b6000806000806080858703121561148e57600080fd5b6114978561135d565b93506114a56020860161135d565b925060408501359150606085013567ffffffffffffffff808211156114c957600080fd5b818701915087601f8301126114dd57600080fd5b8135818111156114ef576114ef611462565b604051601f8201601f19908116603f0116810190838211818310171561151757611517611462565b816040528281528a602084870101111561153057600080fd5b82602086016020830137600060208483010152809550505050505092959194509250565b6000806040838503121561156757600080fd5b6115708361135d565b91506114026020840161135d565b600181811c9082168061159257607f821691505b6020821081036115b257634e487b7160e01b600052602260045260246000fd5b50919050565b60208082526031908201527f4552433732313a207472616e736665722063616c6c6572206973206e6f74206f6040820152701ddb995c881b9bdc88185c1c1c9bdd9959607a1b606082015260800190565b6000835161161b8184602088016112d9565b83519083019061162f8183602088016112d9565b01949350505050565b634e487b7160e01b600052601160045260246000fd5b60008282101561166057611660611638565b500390565b6000821982111561167857611678611638565b500190565b60208082526032908201527f4552433732313a207472616e7366657220746f206e6f6e20455243373231526560408201527131b2b4bb32b91034b6b83632b6b2b73a32b960711b606082015260800190565b6000600182016116e1576116e1611638565b5060010190565b634e487b7160e01b600052601260045260246000fd5b60008261170d5761170d6116e8565b500490565b600082611721576117216116e8565b500690565b634e487b7160e01b600052603260045260246000fd5b7f416363657373436f6e74726f6c3a206163636f756e74200000000000000000008152600083516117748160178501602088016112d9565b7001034b99036b4b9b9b4b733903937b6329607d1b60179184019182015283516117a58160288401602088016112d9565b01602801949350505050565b6001600160a01b03858116825284166020820152604081018390526080606082018190526000906117e490830184611305565b9695505050505050565b60006020828403121561180057600080fd5b8151610907816112a6565b600081600019048311821515161561182557611825611638565b500290565b60008161183957611839611638565b50600019019056fea26469706673582212204ab563d739f9b295ff3ee4886561905303c7680965f944c9cfc9f08bb97ebf9664736f6c634300080d00339f2df0fed2c77648de5860a4cc508cd0818c85b8b8a1ab4ceeef8d981c8956a6",
    "linkReferences": {}
  }
}